:020000040800F2
:10000000000002200D0A0008550A00088D83000830
:10001000550A0008550A0008550A000800000000AB
:10002000000000000000000000000000550A000869
:10003000550A000800000000550A00081183000856
:10004000550A0008550A0008550A0008550A000814
:10005000550A0008550A0008550A0008550A000804
:10006000550A0008550A0008550A0008917B000847
:100070009D7B000805690008A97B0008B57B000886
:10008000A1380108BD700008550A0008550A00088B
:10009000550A0008550A0008550A0008550A0008C4
:1000A000550A0008550A0008550A0008550A0008B4
:1000B000A9810008B5810008C1810008F17000081D
:1000C000550A0008FD700008550A0008512801086B
:1000D0005D280108D53601080537010839370108C0
:1000E000550A0008550A000800000000550A0008DB
:1000F000550A0008550A0008550A0008550A000864
:10010000550A0008550A0008CD8100086928010831
:100110006D370108A1370108550A0008550A000883
:10012000550A0008550A00088D280108C128010851
:10013000D5380108550A0008550A0008550A000874
:1001400000000000000000000000000000000000AF
:10015000550A0008550A0008550A0008D537010855
:1001600009710008550A000821830008458300082A
:10017000550A000869830008550A0008550A000856
:10018000550A0008550A00080938010839380108DD
:100190007528010881280108550A0008550A000839
:1001A000550A0008550A0008550A0008550A0008B3
:1001B000B1780008550A0008550A0008550A0008D9
:1001C000550A0008550A0008216400082D6400083B
:1001D000550A000839640008550A0008550A000845
:1001E000550A0008550A0008550A0008550A000873
:1001F000550A0008550A0008550A0008550A000863
:10020000550A0008550A0008550A0008550A000852
:10021000550A0008550A0008550A0008550A000842
:10022000550A0008550A0008550A00080000000099
:10023000550A0008550A000800000000550A000889
:10024000550A0008550A0008550A0008550A000812
:10025000550A0008550A0008550A0008550A000802
:10026000550A0008550A0008550A0008550A0008F2
:10027000550A0008550A00086D3801080000000002
:10028000550A0008550A0008550A00080000000039
:0802900000000000550A0008FF
:1002A00010B5054C237833B9044B13B10448AFF3B0
:1002B00000800123237010BD080600240000000008
:1002C000749E010808B5034B1BB103490348AFF303
:1002D000008008BD000000000C060024749E010888
:1002E00001F0FF01102A2BDB10F0070F08D010F8E7
:1002F000013B013A8B422DD010F0070F42B3F6D1EB
:10030000F0B441EA012141EA014122F007047FF003
:1003100000070023F0E80256083C85EA010586EA5A
:10032000010685FA47F5A3FA87F586FA47F6A5FA96
:1003300087F68EB9EED1F0BC01F0FF0102F00702A2
:1003400032B110F8013B013A83EA010313B1F8D14D
:100350000020704701387047002D06BF354603382E
:10036000073815F0010F07D1013015F4807F02BF67
:10037000013015F4C03F0130F0BC0138704700BFB8
:10038000034613F8012B002AFBD1181A01387047D5
:1003900081F0004102E000BF83F0004330B54FEA36
:1003A00041044FEA430594EA050F08BF90EA020FA3
:1003B0001FBF54EA000C55EA020C7FEA645C7FEA36
:1003C000655C00F0E2804FEA5454D4EB5555B8BF59
:1003D0006D420CDD2C4480EA020281EA030382EACA
:1003E000000083EA010180EA020281EA0303362D5C
:1003F00088BF30BD11F0004F4FEA01314FF4801C2F
:100400004CEA113102D0404261EB410113F0004F40
:100410004FEA03334CEA133302D0524263EB4303F7
:1004200094EA050F00F0A780A4F10104D5F1200E95
:100430000DDB02FA0EFC22FA05F2801841F10001F0
:1004400003FA0EF2801843FA05F359410EE0A5F1C4
:1004500020050EF1200E012A03FA0EFC28BF4CF0F5
:10046000020C43FA05F3C01851EBE37101F00045AB
:1004700007D54FF0000EDCF1000C7EEB00006EEBB8
:100480000101B1F5801F1BD3B1F5001F0CD3490842
:100490005FEA30004FEA3C0C04F101044FEA445299
:1004A00012F5800F80F09A80BCF1004F08BF5FEA20
:1004B000500C50F1000041EB045141EA050130BD00
:1004C0005FEA4C0C404141EB0101013C28BFB1F512
:1004D000801FE9D291F0000F04BF01460020B1FA5D
:1004E00081F308BF2033A3F10B03B3F120020CDA30
:1004F0000C3208DD02F1140CC2F10C0201FA0CF00E
:1005000021FA02F10CE002F11402D8BFC2F1200C72
:1005100001FA02F120FA0CFCDCBF41EA0C01904028
:10052000E41AA2BF01EB0451294330BD6FEA040471
:100530001F3C1CDA0C340EDC04F11404C4F120025C
:1005400020FA04F001FA02F340EA030021FA04F36E
:1005500045EA030130BDC4F10C04C4F1200220FAC5
:1005600002F001FA04F340EA0300294630BD21FA03
:1005700004F0294630BD94F0000F83F4801306BFC9
:1005800081F480110134013D4EE77FEA645C18BFBD
:100590007FEA655C29D094EA050F08BF90EA020F54
:1005A00005D054EA000C04BF1946104630BD91EA4C
:1005B000030F1EBF0021002030BD5FEA545C05D14F
:1005C0004000494128BF41F0004130BD14F580048E
:1005D0003CBF01F5801130BD01F0004545F0FE4102
:1005E00041F470014FF0000030BD7FEA645C1ABF37
:1005F000194610467FEA655C1CBF0B46024650EA6E
:10060000013406BF52EA033591EA030F41F4002199
:1006100030BD00BF90F0000F04BF0021704730B51F
:100620004FF4806404F132044FF000054FF00001F4
:1006300050E700BF90F0000F04BF0021704730B5B5
:100640004FF4806404F1320410F0004548BF40428A
:100650004FF000013EE700BF42004FEAE2014FEADF
:1006600031014FEA02701FBF12F07F4393F07F4FBA
:1006700081F06051704732F07F4208BF704793F0BD
:100680007F4F04BF41F40021704730B54FF46074D0
:1006900001F0004521F000411CE700BF50EA0102D3
:1006A00008BF704730B54FF000050AE050EA01027C
:1006B00008BF704730B511F0004502D5404261EBEC
:1006C00041014FF4806404F132045FEA915C3FF42D
:1006D000D8AE4FF003025FEADC0C18BF03325FEACA
:1006E000DC0C18BF033202EBDC02C2F1200300FA7B
:1006F00003FC20FA02F001FA03FE40EA0E0021FAA0
:1007000002F11444BDE600BF53B94AB9002908BF3D
:1007100000281CBF4FF0FF314FF0FF3000F074B9DC
:10072000ADF1080C6DE904CE00F006F8DDF804E048
:10073000DDE9022304B070472DE9F047089D044627
:100740008E46002B4DD18A42944669D9B2FA82F284
:1007500052B101FA02F3C2F1200120FA01F10CFAC0
:1007600002FC41EA030E94404FEA1C48210CBEFBF8
:10077000F8F61FFA8CF708FB16E341EA034306FB81
:1007800007F199420AD91CEB030306F1FF3080F010
:100790001F81994240F21C81023E63445B1AA4B25D
:1007A000B3FBF8F008FB103344EA034400FB07F7FF
:1007B000A7420AD91CEB040400F1FF3380F00A8140
:1007C000A74240F207816444023840EA0640E41B35
:1007D00000261DB1D4400023C5E900433146BDE8E1
:1007E000F0878B4209D9002D00F0EF800026C5E983
:1007F000000130463146BDE8F087B3FA83F6002E9B
:100800004AD18B4202D3824200F2F980841A61EB12
:10081000030301209E46002DE0D0C5E9004EDDE730
:1008200002B9FFDEB2FA82F2002A40F09280A1EB18
:100830000C014FEA1C471FFA8CFE0126200CB1FB6D
:10084000F7F307FB131140EA01410EFB03F0884266
:1008500008D91CEB010103F1FF3802D2884200F2F3
:10086000CB804346091AA4B2B1FBF7F007FB101185
:1008700044EA01440EFB00FEA64508D91CEB040423
:1008800000F1FF3102D2A64500F2BB800846A4EB7E
:100890000E0440EA03409CE7C6F12007B34022FA69
:1008A00007FC4CEA030C20FA07F401FA06F31C4398
:1008B000F9404FEA1C4900FA06F3B1FBF9F8200CA5
:1008C0001FFA8CFE09FB181140EA014108FB0EF0EB
:1008D000884202FA06F20BD91CEB010108F1FF3A3B
:1008E00080F08880884240F28580A8F10208614447
:1008F000091AA4B2B1FBF9F009FB101144EA014155
:1009000000FB0EFE8E4508D91CEB010100F1FF34FF
:100910006CD28E456AD90238614440EA0840A0FB97
:100920000294A1EB0E01A142C846A64656D353D06D
:100930005DB1B3EB080261EB0E0101FA07F722FA91
:1009400006F3F1401F43C5E9007100263146BDE8BA
:10095000F087C2F12003D8400CFA02FC21FA03F31D
:10096000914001434FEA1C471FFA8CFEB3FBF7F09E
:1009700007FB10360B0C43EA064300FB0EF69E42C3
:1009800004FA02F408D91CEB030300F1FF382FD25C
:100990009E422DD9023863449B1B89B2B3FBF7F604
:1009A00007FB163341EA034106FB0EF38B4208D9DD
:1009B0001CEB010106F1FF3816D28B4214D9023E1E
:1009C0006144C91A46EA004638E72E46284605E73C
:1009D0000646E3E61846F8E64B45A9D2B9EB02080D
:1009E00064EB0C0E0138A3E74646EAE7204694E79D
:1009F0004046D1E7D0467BE7023B614432E73046D0
:100A000009E76444023842E7704700BF0C4D0D4CC3
:100A100003E02B682360043504340B4B9C42F8D16F
:100A20000A4C02E0002323600434094B9C42F9D1B4
:100A300007F0D6FE16F076FD01F0CCFDFEE700BF14
:100A4000A89E0108000000240806002408060024CF
:100A5000306D0024FEE780B483B000AF87ED000B5B
:100A600097ED007BB0EEC77BB0EE470B0C37BD4671
:100A70005DF8047B704780B582B000AF87ED010A56
:100A8000C7ED000AD7ED000A97ED010A16F0D0F97C
:100A9000F0EE407AB0EE670A0837BD4680BD80B4FC
:100AA00083B000AF78607B6818460C37BD465DF8B0
:100AB000047B704780B483B000AF786039603B68D6
:100AC00018460C37BD465DF8047B704780B485B08E
:100AD00000AFF860B9607A60FB68BA681A60FB68BA
:100AE0007A685A60FB6818461437BD465DF8047B87
:100AF000704780B483B000AF78607B681B681A6869
:100B00007B685B681340002B14BF01230023DBB21A
:100B100018460C37BD465DF8047B704780B483B03F
:100B200000AF78600B46FB70FB78002B09D07B6828
:100B30001B6819687B685A687B681B680A431A60DF
:100B400009E07B681B6819687B685B68DA437B682F
:100B50001B680A401A607B6818460C37BD465DF872
:100B6000047B704780B582B000AF78603960386828
:100B7000FFF7BFFF034619467868FFF7CFFF03462C
:100B800018460837BD4680BD80B485B000AFF86018
:100B9000B9607A60FB68BA681A60FB687A685A6064
:100BA000FB6818461437BD465DF8047B704780B477
:100BB00083B000AF78607B685B68591C7A685160CD
:100BC0001F2B0CBF01230023DBB2002B07D07B6857
:100BD00000225A607B681B681A1D7B681A6000BF80
:100BE0000C37BD465DF8047B704780B483B000AF1E
:100BF00078607B685B68591E7A685160002B0CBF77
:100C000001230023DBB2002B07D07B681F225A6030
:100C10007B681B681A1F7B681A6000BF0C37BD46D3
:100C20005DF8047B704780B485B000AF78603960B0
:100C30007B685A683B681344FB607B681A68FB68F2
:100C4000002B00DA1F335B119B001A447B681A608B
:100C5000FB685A4203F01F0302F01F0258BF5342C1
:100C6000FB60FB68002B07DAFB682033FB607B68C6
:100C70001B681A1F7B681A60FA687B685A6000BF9D
:100C80001437BD465DF8047B704780B483B000AF75
:100C9000786039607B681A683B681B68D31ADB0090
:100CA0001A467B685B681A443B685B68D31A18462F
:100CB0000C37BD465DF8047B704780B582B000AF4D
:100CC00078607B68002200211846FFF75DFF7B6893
:100CD00018460837BD4680BD80B584B000AFF860C7
:100CE000B9607A60FB687A68B9681846FFF74CFF0C
:100CF000FB6818461037BD4680BD80B582B000AF96
:100D0000786039603B6819683B685B68012202FAC9
:100D100003F31A467868FFF7D9FE78680837BD46AE
:100D200080BD80B582B000AF78607B681846FFF761
:100D30003EFF7B6818460837BD4680BD80B582B04F
:100D400000AF78607B681846FFF74FFF7B68184656
:100D50000837BD4680BD80B582B000AF786039608D
:100D60007B6839681846FFF75EFF7B6818460837CE
:100D7000BD4680BD80B584B000AFF860B9607A60D0
:100D8000FB68BA6892E8030083E803007968F868B2
:100D9000FFF7E1FF00BFF8681037BD4680BD80B5A2
:100DA00084B000AFF860B9607A60FB687A68B968AF
:100DB0001846FFF7E9FEFB6818461037BD4680BDB0
:100DC00080B582B000AF7860396078683B68196898
:100DD0003B685B681A46FFF7D7FE7B681846083702
:100DE000BD4680BD80B582B000AF786039603B6899
:100DF00019683B685B681A467868FFF76DFF78688A
:100E00000837BD4680BD80B584B000AF78607B6890
:100E100019687B685B6801229A4007F1080318464D
:100E2000FFF754FE07F108031846FFF762FE03467A
:100E300018461037BD4680BD80B582B000AF7860DF
:100E40007B681846FFF7B3FE7B6818460837BD4637
:100E500080BD80B489B000AFF860B9607A60FB7083
:100E60004FF0FF32BB6802FA03F3FB617B68C3F10A
:100E700020034FF0FF3222FA03F3BB61FA69BB692A
:100E800013407B61FB78002B06D0FB681A687B69F6
:100E90001A43FB681A6006E0FB681A687B69DB434B
:100EA0001A40FB681A6000BF2437BD465DF8047B1A
:100EB000704790B587B000AF07F1080484E80300DD
:100EC000394681E80C00BA683B689A4227D0BB6873
:100ED0007B61FB68002B08D07869031D7B61F96892
:100EE000BB6A1B782022FFF7B4FFBB6A1B78002B7C
:100EF00002D04FF0FF3100E000213A687B69D31A3D
:100F00001A46786916F07AFB7B68002B12D0386895
:100F10007A68BB6A1B780021FFF79BFF0AE0FA683A
:100F20007B689A4206D0B868F9687A68BB6A1B7811
:100F3000FFF78FFF00BF1C37BD4690BD80B483B064
:100F400000AF78607B680B221A707B68FF225A70B2
:100F50007B6818460C37BD465DF8047B704780B44B
:100F600087B000AF78607B681A787B685B78FA7529
:100F7000BB75FB7D3B73BB7D7B73BB89BB82BB8A2F
:100F80003B8200233A7C62F307037A7C62F30F23EF
:100F900018461C37BD465DF8047B704780B483B0AB
:100FA00000AF78607B6800221A607B6800225A607C
:100FB0007B684FF0FF329A607B6800221A737B686F
:100FC00018460C37BD465DF8047B704780B483B08B
:100FD00000AF78607B6800221A607B6818460C3787
:100FE000BD465DF8047B704780B483B000AF786085
:100FF0007B6818460C37BD465DF8047B704780B4AB
:1010000083B000AF78607B6818460C37BD465DF84A
:10101000047B704780B483B000AF78607B6818466B
:101020000C37BD465DF8047B704780B483B000AFD9
:1010300078607B6800221A607B6818460C37BD46D2
:101040005DF8047B704780B483B000AF78607B6844
:1010500000221A607B6818460C37BD465DF8047B99
:10106000704780B582B000AF78607B681846FFF7A4
:1010700065FF7B6800225A607B6800229A607B686B
:101080000022DA607B6818460837BD4680BD80B50F
:1010900082B000AF78607B681846FFF7E2FF7B689C
:1010A00018460837BD4680BD80B483B000AF786075
:1010B0007B6800221A607B6818460C37BD465DF8D5
:1010C000047B704780B483B000AF78607B681846BB
:1010D0000C37BD465DF8047B704780B483B000AF29
:1010E00078607B6818460C37BD465DF8047B704716
:1010F00080B483B000AF78607B6818460C37BD467B
:101100005DF8047B704780B483B000AF78607B6883
:1011100018460C37BD465DF8047B704780B483B039
:1011200000AF78607B6818460C37BD465DF8047BDD
:10113000704780B582B000AF78607B681846FFF7D3
:1011400074FF7B6814331846FFF7AEFF7B681833D3
:101150001846FFF7C2FF7B6820331846FFF773FF7E
:101160007B6824331846FFF7CEFF7B683033184680
:10117000FFF745FF7B6818460837BD4680BD80B540
:1011800082B000AF78607B6830331846FFF742FFCB
:101190007B6824331846FFF7C1FF7B681833184675
:1011A000FFF7A6FF7B6814331846FFF78BFF7B68B9
:1011B00018460837BD4680BD80B582B000AF0346F3
:1011C000FB71FB79184605F063F800BF0837BD4690
:1011D00080BD000080B483B000AF78607B684FF0C2
:1011E00000021A607B684FF000025A607B68154A63
:1011F0009A607B684FF00002DA607B68114A1A61DE
:101200007B68104A5A617B680E4A9A617B684FF08E
:101210000002DA617B684FF000021A627B684FF0CF
:1012200000025A627B68002283F82C207B6800222F
:1012300083F82D207B6818460C37BD465DF8047B8B
:10124000704700BF000080BF80B483B000AF7860FB
:101250007B6818460C37BD465DF8047B704700007C
:1012600080B58AB000AF786007F12403184615F006
:10127000CFFB07F1240207F10C030C49184615F0C7
:1012800091FC07F10C031946786815F0FBFB07F198
:101290000C03184615F041FC07F12403184615F01D
:1012A000B8FB7B6818462837BD4680BD148C010802
:1012B00080B582B000AF7860786815F0E5FB034632
:1012C00018460837BD4680BD80B483B000AF786053
:1012D0007B6818460C37BD465DF8047B704780B4C8
:1012E00083B000AF78607B6818460C37BD465DF868
:1012F000047B704780B582B000AF78607B6838337C
:101300001846FFF7E1FF7B6884331846FFF7DCFFE0
:101310007B68D0331846FFF7D7FF7B68184608373D
:10132000BD4680BD80B582B000AF78607B68D033A9
:101330001846FFF7D4FF7B6884331846FFF7CFFFCA
:101340007B6838331846FFF7CAFF7B6818460837B2
:10135000BD4680BD80B483B000AF78607B6818461E
:101360000C37BD465DF8047B704780B483B000AF96
:1013700078607B6818460C37BD465DF8047B704783
:1013800080B582B000AF7860786801F046F97B687C
:1013900018460837BD4680BD80B582B000AF786082
:1013A0007B68184601F029F97B6818460837BD4666
:1013B00080BD80B582B000AF78607B681846FFF7CB
:1013C000EBFF7B6818460837BD4680BD80B582B00C
:1013D00000AF7860786801F004F97B681846083738
:1013E000BD4680BD80B582B000AF78607B6818468E
:1013F00001F053F97B6818460837BD4680BD80B5BB
:1014000082B000AF78607B681846FFF7EBFF7B681F
:1014100018460837BD4680BD80B582B000AF786001
:101420007B681E4A5A6079684FF000024FF0000353
:10143000C1E9022379684FF000024FF00003C1E9CF
:1014400004237B6818331846FFF7B3FF7B68243307
:101450001846FFF7AEFF7B6830331846FFF7A9FF49
:101460007B683C331846FFF7CAFF7B68002283F88D
:1014700050207B68002283F851207B68002283F88B
:1014800052207B68002283F853207B68002283F877
:1014900054207B6818460837BD4680BDCDCC4C3DF6
:1014A00080B582B000AF786039607B68054A5A60C9
:1014B0007B683A681A60786800F07DF900BF0837E9
:1014C000BD4680BD0AD7A33D80B483B000AF78602D
:1014D0007B68D3E9022343EC172BB0EE470B0C37A4
:1014E000BD465DF8047B704790B585B000AFF860ED
:1014F0000B467A60FB727B68002B78DBFB681B680D
:101500007A689A4273DAFB6893F85230FA7A9A4210
:101510006CD0FB7A002B41D0FB6893F8523083F0FB
:101520000103DBB2002B39D0FB68012283F8502085
:10153000FA687B68134453331B78002B0DD0FB688B
:1015400030337A681146184601F0D4F80146FB683A
:10155000D3E90223C1E9002343E0FB6818337A682A
:101560001146184601F0C6F80146FB68D3E902238C
:10157000C1E90023FB6830337A681146184601F050
:10158000B9F80146FB68D3E90223C1E90023FA68F0
:101590007B681344533301221A7022E0FB7A83F0F4
:1015A0000103DBB2002B1CD0FB6893F85230002BF8
:1015B00017D0FB68012283F85120FB6818337A6842
:1015C0001146184601F096F80446FB6824337A6801
:1015D0001146184601F08EF80146D4E90023C1E90E
:1015E0000023FB68FA7A83F8522000E000BF14372A
:1015F000BD4690BD0000000080B584B000AFF8602B
:1016000087ED000BB960BB68002BC0F2AE80FB68B1
:101610001B68BA689A4280F2A880FB6893ED026B5F
:10162000FB68D3ED017AB7EEE77AB4EEC76BF1EE63
:1016300010FA07D5F9684FF000024FF00003C1E936
:10164000022314E0FB68D3ED017AB7EE007A77EE5F
:10165000677AB7EEE77A97ED006BB4EEC76BF1EE01
:1016600010FA04DD4FF00002454BC7E90023FB6888
:1016700093F8523083F00103DBB2002B30D0FB68CB
:1016800093F8503083F00103DBB2002B05D0F968EA
:10169000D7E90023C1E9022367E0FB6893ED027BF1
:1016A00097ED006B36EE477BB0EE470BFFF7D3F9B3
:1016B000B0EE407B9FED306BB4EEC67BF1EE10FADE
:1016C0004CBF01230023DBB2002B4ED0F968D7E9D1
:1016D0000023C1E90223FB68002283F8502044E084
:1016E000FB6893F8513083F00103DBB2002B0CD080
:1016F000FB681833BA681146184600F0FBFF014634
:10170000D7E90023C1E900232FE0FB681833BA684A
:101710001146184600F0EEFF034693ED007B97ED6F
:10172000006B36EE477BB0EE470BFFF794F9B0EE57
:10173000407B9FED116BB4EEC67BF1EE10FA4CBF0F
:1017400001230023DBB2002B0FD0FB681833BA68EB
:101750001146184600F0CEFF0146D7E90023C1E943
:101760000023FB68002283F8512000BF1037BD46DC
:1017700080BD00BFAFF300809A9999999999B93FBC
:101780000000F03F80B586B000AF786187ED020BB6
:101790000B467A60FB74FB7C7A6819467869FFF720
:1017A000A3FE796897ED020B7869FFF725FF00BF6C
:1017B0001837BD4680BD80B588B000AF78607B68C3
:1017C00003F118007B681B6819464FF000024FF0C8
:1017D0000003C7E9022307F108031A4600F09AFF45
:1017E0007B6803F124007B681B6819464FF00002F8
:1017F0004FF00003C7E9042307F110031A4600F075
:1018000089FF7B6803F130007B681B6819464FF045
:1018100000024FF00003C7E9062307F118031A4638
:1018200000F078FF7B6803F13C007B681B680022B6
:10183000194600F0AAFF00BF2037BD4680BD80B426
:1018400083B000AF78607B6818460C37BD465DF802
:10185000047B704780B584B000AFF86087ED000B63
:10186000B960BB6807EE903AB8EE677BFB6883ED22
:10187000067B97ED000BF86800F02AF800BF1037E0
:10188000BD4680BD80B485B000AFF86087ED000B29
:10189000FB6893ED026B97ED007B26EE076BFB6810
:1018A00093ED005BFB6893ED047B25EE077B36EE42
:1018B000077BFB6883ED007BFB6893ED007BF7EE15
:1018C000C77BB0EE670A1437BD465DF8047B7047EE
:1018D00080B584B000AFF86087ED000B97ED007B1A
:1018E0009FED0F6B27EE066BFB6893ED067B86EE94
:1018F000075BB0EE450B15F073F9B0EE407BFB686B
:1019000083ED047BFB6893ED047BB7EE006B36EE52
:10191000477BFB6883ED027B00BF1037BD4680BD6F
:10192000182D4454FB2119C080B584B000AF7860F5
:1019300087ED000A7B683A681A620023FB607B68C7
:101940009B6BFA689A4222DAFB681F4A02FB03F398
:101950001E4A1344184600F06FFFFB681A4A02FB48
:1019600003F31A4A1A441A49FB681B010B4493ED0E
:10197000007A7B68D3ED087A67EE277AB0EE670AC3
:10198000104600F065FFFB680133FB60D7E77A681B
:101990007B68D3ED087AFCEEE77A17EE901A9FED9C
:1019A000080B1046FFF756FF97ED000A786800F025
:1019B00011F800BF1037BD4680BD00BFAFF30080F7
:1019C00000000000000089400CDC0500000000C0A1
:1019D000AC8C010880B52DED028BADF59D5D00AF9F
:1019E00007F56873A3F56773186007F56873A3F5C7
:1019F000687383ED000A07F6D8131846FFF730FC2A
:101A000007F6D8131846FFF753FC0246474B07F575
:101A10009D510B441146184600F042FF444B07F518
:101A20009D521344F7EE000ABFEE000A184600F07C
:101A300045FF002341F29C323A44136007F5687376
:101A4000A3F567731B689B6B41F29C323A441268A2
:101A50009A4263DA374A41F29C333B441B681B01CC
:101A60001344083393ED007A07F56873A3F56873A0
:101A7000D3ED006AC6EE877AFDEEE77A17EE901A8C
:101A800007F56873A3F567731A6841F29C333B440A
:101A90001B681E339B0013445960264A41F29C3355
:101AA0003B441B681B011344043393ED008A1F4A17
:101AB00007F59D531A441E4B07F59D510B441146E3
:101AC000184600F010FFF0EE407A68EE277A07F52E
:101AD0006873A3F567731A6841F29C333B441B6833
:101AE0000E339B0013440433C3ED007A07F568738B
:101AF000A3F567731A6841F29C333B441B681633A5
:101B00009B00134400225A6041F29C333B441B6803
:101B1000013341F29C323A4413608FE700BF07F56E
:101B20009D57BD46BDEC028B80BD00BF74ECFFFF2E
:101B30006CECFFFFAC8C010880B483B000AF786020
:101B400087ED000AD7ED007AF5EEC07AF1EE10FAD3
:101B500002D54FF000033B607B683A685A6200BFD1
:101B60000C37BD465DF8047B704780B483B000AF8E
:101B7000786087ED000AD7ED007AF5EEC07AF1EED5
:101B800010FA02D54FF000033B60D7ED007AB7EEB4
:101B9000007AF4EEC77AF1EE10FA02DD4FF07E53D0
:101BA0003B607B683A689A6200BF0C37BD465DF8BF
:101BB000047B70470000000080B483B000AF786001
:101BC00087ED000AD7ED007AB7EEE77A9FED0E6B4E
:101BD000B4EEC67BF1EE10FA01D50D4B3B60D7EDAC
:101BE000007AB2EE047AF4EEC77AF1EE10FA01DD73
:101BF000084B3B607B683A68DA6200BF0C37BD4631
:101C00005DF8047B704700BF7B14AE47E17A843FE8
:101C10000AD7233C0000204180B483B000AF786035
:101C200039603B68002B01DC01233B603B68082BDB
:101C300001DD08233B607B683A689A6300BF0C377C
:101C4000BD465DF8047B704780B483B000AF786018
:101C500087ED000AD7ED007AF5EEC07AF1EE10FAC2
:101C600002D54FF000033B60D7ED007AB2EE047A64
:101C7000F4EEC77AF1EE10FA01DD054B3B607B68AC
:101C80003A681A6300BF0C37BD465DF8047B7047A5
:101C90000000204180B582B000AF786087ED000A77
:101CA000D7ED007A9FED097A67EE877AC7ED007A63
:101CB0007B68D7ED007AB7EEE77AB0EE470B1846AF
:101CC000FFF706FE00BF0837BD4680BD0000484450
:101CD00090B52DED028BADF59D5D81B000AF07F5A0
:101CE0006873A3F56773186007F56873A3F56873E5
:101CF00083ED000A4FF0000341F29C323A44136036
:101D0000002341F298323A44136007F56873A3F553
:101D100067731B689B6B41F298323A4412689A428F
:101D200080F2508107F56873A3F567731A6841F272
:101D300098333B441B6816339B0013445B685A1C62
:101D400007F56873A3F56773196841F298333B444C
:101D50001B6816339B000B445A6007F56873A3F5A4
:101D600067731A6841F298333B441B6816339B0033
:101D700013445A6807F56873A3F56773196841F24D
:101D800098333B441B681E339B000B445B689A42AC
:101D9000ACBF01230023DBB2002B00F0858007F5E8
:101DA0006873A3F567731A6841F298333B441B6864
:101DB00016339B00134400225A60A34B07F59D5233
:101DC00013441846FFF74CFA9F4B07F59D521344F6
:101DD0001846FFF76DFA024607F6CC13114618466F
:101DE00000F05EFD41F290333B44F7EE000ABFEE97
:101DF000000A184600F062FD944A41F298333B44D1
:101E00001B681B011344043393ED008A07F6CC12C0
:101E100041F290333B441146184600F064FDF0EE69
:101E2000407A68EE277A07F56873A3F567731A6836
:101E300041F298333B441B680E339B001344043338
:101E4000C3ED007A814A41F298333B441B681B0181
:101E5000134493ED007A07F56873A3F567731A6866
:101E600041F298333B441B680E339B001344043308
:101E7000D3ED006A07F56873A3F567731B68D3EDAC
:101E80000C7A66EEA77A77EE277A07F56873A3F5E2
:101E900067731A6841F298333B441B6826339B00F2
:101EA00013440433C3ED007A41F298333B441B687A
:101EB000674A02FB03F3674A1344184600F026FD05
:101EC000B0EE407A41F29C333B44D3ED007A77EE9A
:101ED000877A41F29C333B44C3ED007A41F2983358
:101EE0003B441B685A4A02FB03F35A4A9C1841F2CE
:101EF00098333B441B68564A02FB03F3554A13448C
:101F0000184600F003FDB0EE407A07F56873A3F5BC
:101F100067731B68D3ED097A27EE277A07F5687394
:101F2000A3F56873D3ED007A77EE277AB0EE670AEF
:101F3000204600F033FD41F298333B441B68444A8D
:101F400002FB03F3434A9C1807F56873A3F5677314
:101F5000196807F56873A3F567731A6841F2983337
:101F60003B441B6826339B0013440433D3ED007AB3
:101F7000B7EEE77AB0EE470B0846FFF783FCB0EE0A
:101F8000407A07F56873A3F567731B68D3ED087A89
:101F900027EE277A07F56873A3F567731B68D3EDFF
:101FA0000B7A67EE277AB0EE670A204600F050FC05
:101FB00041F298333B441B68013341F298323A4472
:101FC0001360A2E607F56873A3F567731B68D3ED8A
:101FD0000A7A41F29C333B4493ED007A67EE277A0C
:101FE00041F29C333B44C3ED007A07F56873A3F5D7
:101FF00067731B68D3ED0A7AB7EE007A37EE677A1B
:1020000007F56873A3F56873D3ED007A67EE277A56
:1020100041F29C333B4493ED007A77EE277A41F20C
:102020009C333B44C3ED007A41F29C333B441B6834
:1020300007EE903AB0EE670A07F59D570437BD46A4
:10204000BDEC028B90BD00BF68ECFFFFAC8C0108BB
:102050000CDC0500000000C080B582B000AF7860E5
:102060007B681846FFF7EBFB7B68094A5A627B687E
:102070004FF07E529A627B684FF07E52DA627B6844
:1020800008229A637B6818460837BD4680BD00BFAA
:102090006666663F80B586B000AF3B461846FEF7E1
:1020A0007DFF03233B6000237B6006F04DFB7861DE
:1020B0007B690D4AA2FB03231B093B613B69BB60A3
:1020C00001233B733B461946084806F085F8002279
:1020D0000749064806F0FAF8044806F0E5F800BF9C
:1020E0001837BD4680BD00BF1F85EB513C0B002457
:1020F0007923000880B586B000AFF860B9607A60D7
:1021000000237B617A697B689A4232D21B4814F0C3
:102110004DFC0346002B14BF01230023DBB2002B30
:1021200002D0174814F0F0FA0021154814F09AF87C
:10213000F0EE407AB0EE670A1248FFF7C9FDB0EE44
:10214000407A114BD3ED007A67EE277AC7ED047A17
:102150007B699B00BA6813443A691A607B69013352
:102160009B00BA6813443A691A607B6902337B6149
:10217000C8E700BF1837BD4680BD00BF6006002419
:10218000A0060024C0070024380B002480B5A8B0A6
:1021900002AF654802F020FE0121634802F0AAFE6A
:1021A0000121614802F022FE5F4802F01BFEF0EEC2
:1021B000407A5E4BC3ED007A5D4900230093012312
:1021C000002209685B4804F049FC5B490023009346
:1021D000012300220968594804F040FC5848FEF7E2
:1021E000BEFE0346A7F878303B46B96F184604F0A8
:1021F00029F95448FEF7B3FE0346A7F87C303B4666
:102200001133F96F184604F01DF94F48FEF7A7FE89
:102210000346A7F880303B462233D7F88010184693
:1022200004F010F94948FEF79AFE0346A7F88430F7
:102230003B463333D7F88410184604F003F944487A
:10224000FEF78DFE0346A7F888303B464433D7F8A7
:102250008810184604F0F6F83E48FEF780FE034664
:10226000A7F88C303B465533D7F88C10184604F04D
:10227000E9F83948FEF773FE0346A7F890303B466D
:102280006633D7F89010184604F0DCF8394604237A
:102290000722324804F0E4F8304804F0C5FA00237D
:1022A000C7F89430D7F89430062B10DCD7F8943068
:1022B000582202FB03F32A4A134402211846FFF76F
:1022C000EFF8D7F894300133C7F89430EAE7174BAA
:1022D000D3ED007AF0EE670AB6EE000A214814F05A
:1022E00053FB124BD3ED007AB0EE670A1E4813F091
:1022F0005BFF9FED1E0A1C4814F00AFA0B4BD3ED4E
:10230000007AB0EE670A1A48FFF70EFBFFF7C2FE2D
:102310000020FEF751FF1749034802F05FFD00BFA0
:102320009837BD4680BD00BF24060024180B00244A
:102330008C8C0108F00A0024888C0108040B00240E
:10234000A88C0108A48C0108A08C01089C8C0108B1
:10235000988C0108948C0108908C01088008002456
:102360008808002460060024A0060024CDCC4C3E42
:10237000C0070024F520000880B58CB000AF78605D
:102380000023FB62002387F82B30834804F04CFCC9
:10239000034683F00103DBB2002B05D0012387F84D
:1023A0002B300023FB6211E07C4804F03DFC034627
:1023B00083F00103DBB2002B05D0012387F82B301B
:1023C0000123FB6202E0002387F82B3000237B62AD
:1023D0007B6A062B2EDC7B6ADBB21946704804F060
:1023E00039FA034607EE903AB8EE677ADFED6D6A88
:1023F000C7EE267A6C4A7B6A9B001344C3ED007AD1
:102400007B6A582202FB03F3684A9818664A7B6A83
:102410009B001344D3ED007AB7EEE77A97F82B30A0
:10242000FA6A1946B0EE470BFFF7ACF97B6A013345
:102430007B62CDE75D48FFF747F8B0EE407BF7EEF3
:10244000C77BC7ED087A5A48FFF73EF8B0EE407BED
:10245000F7EEC77BF7EE002A9FED562A0020F5EE37
:10246000001AB7EE001ADFED530AB0EE670A02F069
:1024700050FC87ED070A5048FFF726F8B0EE407B86
:10248000F7EEC77BF7EE002A9FED4A2A0020F7EE11
:10249000001AB2EE001ADFED470AB0EE670A02F04A
:1024A00038FCF0EE407AFDEEE77A17EE903ABB6129
:1024B0004248FFF709F8B0EE407BF7EEC77BF7EE36
:1024C000002A9FED3C2A0020F1EE001AB2EE041A19
:1024D000DFED380AB0EE670A02F01BFC87ED050A53
:1024E0003748FEF7F1FFB0EE407BF7EEC77BF7EE23
:1024F000002A9FED302A0020F0EE001AB2EE041AF6
:10250000DFED2C0AB0EE670A02F003FC87ED040A47
:102510002C48FEF7D9FFB0EE407BF7EEC77BF7EE15
:10252000002A9FED242A0020F7EE001AB0EE001AD0
:10253000DFED200AB0EE670A02F0EBFB87ED030A3D
:102540002148FEF7C1FFB0EE407BF7EEC77B1F4B83
:10255000C3ED007A97ED080A1D48FFF706FB97EDDB
:10256000070A1B48FFF7E8FAB9691948FFF754FB57
:1025700097ED050A1648FFF71FFB97ED040A14486C
:10258000FFF762FB97ED030A1148FFF783FB00BFDB
:102590003037BD4680BD00BFF00A0024040B002484
:1025A0008008002400FF7F471C0B002488080024BB
:1025B000E0080024000000003809002490090024ED
:1025C000E8090024400A0024980A0024380B00245B
:1025D000C007002480B500AFFFF7D8FD00231846E0
:1025E00080BD80B582B000AF7860786800F00CFAEA
:1025F0007B6818460837BD4680BD80B582B000AF05
:102600007860786800F00BFA7B68184600F013FADF
:102610007B6818460837BD4680BD80B582B000AFE4
:102620007860786800F01BFA7B6818460837BD466A
:1026300080BD80B582B000AF78607B6819687B6828
:102640009A687B681B68D31ADB101A46786800F01A
:1026500011FA7B681846FEF793FE7B681846083728
:10266000BD4680BDB0B582B000AF78607B681C68A5
:102670007B685D687B68184600F00FFA03461A46CF
:102680002946204600F014FA7B681846FFF7D1FF70
:102690007B6818460837BD46B0BD80B582B000AF34
:1026A0007860786800F0A4F97B68184600F00EFAAC
:1026B0007B6818460837BD4680BD80B582B000AF44
:1026C0007860786800F017FA7B681846FEF77EFE9F
:1026D0007B6818460837BD4680BD80B582B000AF24
:1026E00078607B681846FFF7E8FF7B681846083774
:1026F000BD4680BD80B483B000AF786039607B6830
:102700001A683B68DB00134418460C37BD465DF879
:10271000047B704790B585B000AFF860B9607A600F
:10272000F86800F00DFA0246BB6893428CBF0123A3
:102730000023DBB2002B0FD0F86800F051FB0446F9
:10274000F86800F0FDF90246BB689A1A7B682146DA
:10275000F86800F005FA14E0F86800F0F1F90246B4
:10276000BB68934234BF01230023DBB2002B08D0A7
:10277000FB681A68BB68DB0013441946F86800F070
:1027800040FB00BF1437BD4690BD80B590B002AF8E
:10279000F860B9601346FB71F86800F053FB02461D
:1027A000BB68934234BF01230023DBB2002B15D05A
:1027B00007F11003F968184600F075FBBA6807F1D5
:1027C000180307F110011846FEF7D4FA07F11803B1
:1027D00093E80600F86800F052FB1EE007F13003B2
:1027E000F968184600F06FFB07F1300207F1280383
:1027F00011461846FEF7E4FAF86800F023FB02469B
:10280000BB689B1A07F12000FA1D0192009307F1A3
:1028100028030CCBF96800F068FB00BF3837BD46D1
:1028200080BD80B483B000AF78607B6818460C37F9
:10283000BD465DF8047B704780B582B000AF78601C
:10284000786800F08BFB00BF0837BD4680BD0000F4
:1028500080B485B000AF786087ED000AD7ED007ACC
:10286000FDEEE77A17EE903AFB60FB6807EE903AD0
:10287000F8EEE77A97ED007A77EE677A7B68C3ED3A
:10288000007AFB68054A9A4228BF1A467B689A601C
:1028900000BF1437BD465DF8047B7047FF7601002A
:1028A00080B582B000AF786039603968786800F030
:1028B0007BFB7B6818460837BD4680BD80B584B079
:1028C00000AFF86087ED020AC7ED010AFB68D7ED9B
:1028D000010A97ED020A184600F0A6FBFB681846AD
:1028E0001037BD4680BD80B582B000AF78603960DA
:1028F0007B681A463968786800F0ABFBF0EE407AE6
:10290000B0EE670A0837BD4680BD000080B485B0D0
:1029100000AF78607B685A687B689B681A441D4BDF
:10292000A3FB0213DB0A1C4901FB03F3D31A7A68E9
:1029300002339B00134404331B68FB607B685A68B6
:102940007B689B6813445A1C124BA3FB0213DB0ADF
:10295000114901FB03F3D31A7A6802339B00134435
:1029600004331B68BB6097ED027AD7ED037A37EE2C
:10297000677A7B68D3ED007A27EE277AD7ED037A62
:1029800077EE277AB0EE670A1437BD465DF8047B10
:10299000704700BFF11976050077010080B483B05D
:1029A00000AF786087ED000A7B685B687A68023365
:1029B0009B00134404333A681A607B685A68094BD9
:1029C0001344094AA2FB0312D20A084901FB02F28E
:1029D0009A1A7B685A6000BF0C37BD465DF8047BCD
:1029E000704700BFFF760100F119760500770100FE
:1029F00080B582B000AF7860786800F05BFB7B68E0
:102A000018460837BD4680BD80B483B000AF7860FB
:102A10007B6818460C37BD465DF8047B704780B56F
:102A200082B000AF7860786800F05EFB7B68184683
:102A30000837BD4680BD80B483B000AF78607B6846
:102A400000221A607B6800225A607B6800229A602C
:102A50007B6818460C37BD465DF8047B704780B430
:102A600083B000AF78607B6818460C37BD465DF8D0
:102A7000047B704780B584B000AFF860B9607A60BD
:102A8000BB68002B05D0FB687A68B968184600F06F
:102A900036FB00BF1037BD4680BD80B483B000AFA9
:102AA00078607B6818460C37BD465DF8047B70473C
:102AB00080B584B000AFF860B9607A60B968F86832
:102AC00000F02CFB00BF1037BD4680BD80B582B042
:102AD00000AF78607B681846FEF7EFF87B68083334
:102AE0001846FEF7EAF87B6800221A617B681846F0
:102AF0000837BD4680BD80B584B000AF78607B6884
:102B00001B68002B18D07B68184600F014FB0246A7
:102B10007B681B68D31A9B10FB6078687B681A6916
:102B2000FB689B005B421344FA68194600F0CDFA3B
:102B30007B68184600F015FB00BF1037BD4680BD0E
:102B400080B483B000AF78607B685A687B681B688C
:102B5000D31ADB1018460C37BD465DF8047B70476E
:102B6000F0B593B000AFF860B9607A603B607B6805
:102B7000002B00F02E81FB689A68FB685B68D31A13
:102B8000DB101A467B68934200F2A38007F1100322
:102B90003A68F968184600F004FB07F1100318467C
:102BA00000F031FB7863F86800F01AF903467B62A5
:102BB00007F1080207F124031146184600F02FFB25
:102BC00003463B63FB685B68FB623A6B7B689A4237
:102BD00041D9FB685A687B68DB005B42D418FB680C
:102BE0005D68FB685E68FB681846FFF756FF0346A2
:102BF00032462946204600F027FBFB685A687B686E
:102C0000DB001A44FB685A6007F10803184600F01D
:102C100034FB034618687B68DB005B42FA6A1344A6
:102C2000FA6A194600F034FB07F10803184600F071
:102C300024FB03461C6807F10803184600F01DFB3F
:102C400003461A687B68DB0013447A6B19462046FA
:102C500000F036FB37E0FB685C687A683B6BD51A9E
:102C6000FB681846FFF719FF03467A6B2946204692
:102C700000F035FB0246FB685A6007F1080318466E
:102C800000F0FBFA03461C68FB685D68FB681846A9
:102C9000FFF703FF03462A46F96A204600F0D4FAFC
:102CA000FB685A683B6BDB001A44FB685A6007F10B
:102CB0000803184600F0E1FA03461B687A6BF96ACC
:102CC000184600F0FDFA07F11003184600F087FAE5
:102CD0007FE0424A7968F86800F012FB7864F8688F
:102CE00000F055FB0346BB6207F1280207F1080319
:102CF0001146184600F093FA03463B64FB68796C72
:102D0000184600F054FBF863FB6BBB633B6CDB00C5
:102D1000FA6BD418FB681846FFF7BFFE03463A6803
:102D20007968204600F0DBFA0023BB63FB681C686F
:102D300007F10803184600F0A0FA03461D68FB6877
:102D40001846FFF7AAFE0346FA6B2946204600F014
:102D500042FBB8637B68DB00BA6B1344BB6307F1CB
:102D60000803184600F089FA03461C68FB685D6892
:102D7000FB681846FFF791FE0346BA6B29462046CA
:102D800000F029FBB863FB681C68FB685D68FB68A2
:102D90001846FFF782FE03461A4629462046FFF7EB
:102DA00087FEF868FB681968FB689A68FB681B680F
:102DB000D31ADB101A46FFF75DFEFB68FA6B1A6048
:102DC000FB68BA6B5A607B6CDB00FA6B1A44FB68D9
:102DD0009A6000BF4C37BD46F0BD00BF1C8C010897
:102DE00080B584B000AF78607B681A1D07F10C03D2
:102DF0001146184600F008FBFB6818461037BD4620
:102E000080BD90B585B000AF786039607B685A6846
:102E10003B68D31ADB10FB60FB68002B0ED07B688D
:102E20005C687B681846FFF738FE03461A46214661
:102E30003868FFF73DFE7B683A685A6000BF143778
:102E4000BD4690BD80B586B000AF786007F108033D
:102E50007968184600F0E8FA07F110037968184617
:102E600000F0F1FA07F1100207F1080311461846C5
:102E7000FDF70BFF034618461837BD4680BD80B4EA
:102E800085B000AFF8603B1D83E80600FB6808339F
:102E90003A1D92E8030083E8030000BF1437BD46E3
:102EA0005DF8047B704780B582B000AF7860396010
:102EB0003B681B68002219467868FDF70DFF7868AB
:102EC0000837BD4680BD80B483B000AF78603960FC
:102ED0007A683B68083393E8030082E80300786867
:102EE0000C37BD465DF8047B704780B58EB002AFED
:102EF000F860B960394681E80C0007F11403B9683D
:102F0000184600F0B0FA07F114023B461146184685
:102F1000FDF7BBFEF86207F11C033A46114618465E
:102F2000FDF760FFFB6B1B780093BB6B07F11C0286
:102F300006CAB86800F0A8FA07F12403B968184671
:102F4000FFF7B1FFFB6807F12401FA6A1846FDF7A5
:102F500011FF00BFF8683037BD4680BD80B485B032
:102F600000AF78600023FB60FB680E4A93420CD8E8
:102F70007A68FB6802339B00134404334FF000026D
:102F80001A60FB680133FB60EEE77B6800225A6041
:102F90007B6801229A6000BF1437BD465DF8047B50
:102FA000704700BFFF76010080B584B000AF786045
:102FB0003960386800F056FB02467B681A600123CE
:102FC000FB60FB68B3F51C7F22D2FB685A1E7B684E
:102FD00053F82230BB60BB689B0FBA685340BB609C
:102FE000BB68104A02FB03F3BB60F86800F046FBC5
:102FF0000246BB681344BB60B86800F033FB01466F
:103000007B68FA6843F82210FB680133FB60D8E75D
:103010007B684FF41C72C3F8C02900BF1037BD464F
:1030200080BD00BF6589076C80B485B000AFF860D3
:1030300087ED020AC7ED010AFB68BA681A60FB68EF
:103040007A685A60FB6818461437BD465DF8047B01
:10305000704780B52DED028B86B000AFF860B96087
:103060007A6007F11403B968184600F013FB07F102
:103070001403184600F01DFBB0EE408A786800F09B
:1030800028FBF0EE408A786800F032FBF0EE407AE0
:1030900078EEE77A28EE278A786800F029FBF0EED0
:1030A000407A78EE277AB0EE670A1837BD46BDEC55
:1030B000028B80BD80B483B000AF78607B68184617
:1030C0000C37BD465DF8047B704780B584B000AF17
:1030D000F860B9607A607A68B968F86800F017FB40
:1030E00000BF1037BD4680BD80B483B000AF7860AC
:1030F0007B6818460C37BD465DF8047B704780B589
:1031000084B000AFF860B9607A607A68B968F8682E
:1031100000F00DFB00BF1037BD4680BD80B582B00A
:1031200000AF786039603968786800F010FB00BF44
:103130000837BD4680BD80B582B000AF78607B683F
:103140001B69002B08D07B681B69043B184600F004
:1031500009FB0346043300E0002318460837BD4648
:1031600080BD80B584B000AF786007F108031846D1
:10317000FDF7A3FD7B68083307F1080292E803001E
:1031800083E803007B6803F108027B6892E8030090
:1031900083E803007B6800221A6100BF1037BD4638
:1031A00080BDB0B584B000AFF860B9607A60FB68EC
:1031B000BA681A60FB681B681D46F86800F0DDFA03
:1031C0000446786800F0E5FA03461A462146284688
:1031D00000F0EAFAFB6818461037BD46B0BD90B55E
:1031E00083B000AF78607B681B681C46786800F08D
:1031F000C4FA03461946204600F0E9FA7B681846EF
:103200000C37BD4690BD80B582B000AF786078685D
:1032100000F0B3FA034618460837BD4680BD90B5A6
:1032200083B000AF78603960786800F026F8034614
:103230001C68386800F021F803461B68E31ADB10AD
:1032400018460C37BD4690BD90B585B000AFF8600C
:10325000B9607A603B60F86800F0C6FA0446B86866
:1032600000F0C2FA01463B687A68204600F0D1FAC5
:10327000034618461437BD4690BD80B483B000AFF6
:1032800078607B6818460C37BD465DF8047B704754
:1032900090B585B000AFF860B9607A60F86800F06A
:1032A000C9FA0446B86800F0C5FA03467A681946B8
:1032B000204600F0CAFA034618461437BD4690BDB2
:1032C00080B584B000AFF860B9607A607A68B96898
:1032D000F86800F0DDFA00BF1037BD4680BD80B54C
:1032E00084B000AFF860B9607A603B607A68B96812
:1032F000F86800F0DCFA034618461037BD4680BD7A
:1033000090B587B000AFF860B9607A60F86800F0F7
:10331000E0FA0446F868FFF713FC0346E21ABB68BC
:103320009A4234BF01230023DBB2002B02D078681D
:1033300013F076FBF868FFF703FC0446F868FFF724
:10334000FFFB03463B6107F1080207F1100311463A
:10335000184600F0CFFA03461B6823447B61F868E7
:10336000FFF7EEFB02467B69934206D3F86800F054
:10337000B0FA02467B69934204D9F86800F0A9FAD2
:10338000034600E07B6918461C37BD4690BD80B5FA
:1033900084B000AF78607A6807F10C0311461846D4
:1033A00000F032F8FB6818461037BD4680BD80B586
:1033B00082B000AF786039603B68002B06D07B6834
:1033C0003968184600F0AAFA034600E000231846C0
:1033D0000837BD4680BD90B585B000AFF860B960D4
:1033E0007A603B60F86800F0A8FA0446B86800F01C
:1033F000A4FA01463B687A68204600F00AFA0346C0
:1034000018461437BD4690BD80B483B000AF7860D5
:1034100039603B681A687B681A607B6818460C370D
:10342000BD465DF8047B704780B582B000AF786020
:1034300039603B68083319467868FDF7C1FC786845
:103440000837BD4680BD80B582B000AF7860396076
:103450003B681B68002219467868FDF7A0FC786875
:103460000837BD4680BD80B582B000AF7860396056
:103470003B681B68002219467868FDF790FC786865
:103480000837BD4680BD000090B5A5B004AFF86018
:10349000381D80E806003B603B68002B00F0DC80B4
:1034A000F86800F059FA0446F868FFF7CBFC0346C9
:1034B000E31A3A689A4294BF01230023DBB2002B3F
:1034C00038D007F13003F9681846FFF7FCFCFB68B9
:1034D00003F108013A6807F138031846FDF74AFC82
:1034E00007F1280401AA07F1380393E8030082E8F2
:1034F00003007B6B00933B6B3A1D06CA204600F02D
:103500004DFA3A6807F14003391D1846FDF732FCC1
:1035100007F19003009307F140030CCB391D03C959
:10352000FDF7C7FCFB6808333A6811461846FDF7FB
:1035300012FC92E04A4A3968F86800F060FAF867CD
:10354000FB68F96F184600F0A1FAB867B86F00F091
:1035500009F9014607F1200300221846FDF7BCFBDC
:1035600007F15003F9681846FFF79DFC07F1500278
:1035700007F1480311461846FDF722FC3A1D07F1F2
:10358000580311461846FDF71BFC07F1180402AA60
:1035900007F1200393E8030082E803006A4607F17D
:1035A000580393E8030082E8030007F148030CCBBB
:1035B000F968204600F07DFA3A6807F1600307F1E8
:1035C00018011846FDF7D6FB07F19003009307F1A9
:1035D00060030CCB07F1180103C9FDF76AFC07F182
:1035E0006803F9681846FFF76EFC3A6807F1700344
:1035F00007F118011846FDF7BDFB07F1100401AAF9
:1036000007F1700393E8030082E80300FB6E009368
:10361000BB6E3A1D06CA204600F07EFAFB681846CB
:10362000FFF769FAF86F00F0A8FA03469B00BA6F3B
:103630001A44FB681A61FB681A4607F1200393E8F5
:10364000030082E80300FB68083307F1100292E8E8
:10365000030083E8030000E000BF8437BD4690BD4F
:10366000348C010880B582B000AF7860786800F0D3
:1036700091FA034618460837BD4680BD80B582B032
:1036800000AF7860786800F093FA03461846083770
:10369000BD4680BD80B483B000AF786039607B6880
:1036A0003A681A607B6818460C37BD465DF8047BA3
:1036B000704780B582B000AF78607B681B681846A1
:1036C00000F0AEFAF0EE407AB0EE670A0837BD4679
:1036D00080BD80B483B000AF78607B685B6807EE24
:1036E000903AB0EE670A0C37BD465DF8047B704730
:1036F00080B483B000AF78607B681B6807EE903AB7
:10370000B0EE670A0C37BD465DF8047B704780B5A4
:1037100084B000AFF860B9607A607B689B0019469E
:10372000B86813F062F900BF1037BD4680BD80B5A0
:1037300084B000AFF860B9607A607B68DB0019463E
:10374000B86813F052F900BF1037BD4680BD80B491
:1037500083B000AF7860396000BF0C37BD465DF8BC
:10376000047B704780B483B000AF78607B681846F4
:103770000C37BD465DF8047B704780B483B000AF62
:1037800078607B68083318460C37BD465DF8047BCB
:10379000704780B483B000AF78607B6818460C3700
:1037A000BD465DF8047B704780B584B000AFF8601B
:1037B000B9607A607868FFF7ECFF03461A46B9688B
:1037C000F86800F095FA00BF1037BD4680BD80B59F
:1037D00082B000AF786039603968786800F0A0FA8C
:1037E00000BF0837BD4680BD80B584B000AF7860AB
:1037F0003B1D184600F09FFA03461A6807F10C03B8
:103800001146184600F0A2FAFB6818461037BD466C
:1038100080BD80B584B000AFF860B9607A603B606D
:103820007A68B968F86800F0A3FA034618461037BA
:10383000BD4680BD80B483B000AF78607B68184619
:103840000C37BD465DF8047B7047B0B584B000AF5F
:10385000F860B9607A60F86800F09CFA0446B868CD
:1038600000F098FA05467B68184600F093FA034684
:103870001A462946204600F098FA02463B1D11469A
:10388000184600F0A2FA034618461037BD46B0BDF0
:1038900080B584B000AFF860B9607A607A68B968C2
:1038A000F86800F09EFA00BF1037BD4680BD80B5B5
:1038B00086B000AFF860B9607A600123FB757A6862
:1038C000B968F86800F0ABFA034618461837BD46E9
:1038D00080BD80B582B000AF78607B68184600F08C
:1038E000C8FA0346184600F0AAFA034618460837F5
:1038F000BD4680BD80B483B000AF786039607B681E
:103900001A683B681B689A4201D23B6800E07B68FA
:1039100018460C37BD465DF8047B704780B582B011
:1039200000AF7860396000223968786800F0ACFA3E
:10393000034618460837BD4680BD80B584B000AF49
:10394000786007F10C037968184600F0FFF9FB680E
:1039500018461037BD4680BD80B586B000AF786090
:103960007B681846FFF7E7FB014607F108030022D2
:103970001846FDF714FA07F1100379681846FFF7A7
:1039800062FD07F1100207F1080311461846FDF722
:103990007CF9034618461837BD4680BD82B090B505
:1039A0008DB004AFF860381D80E806007B6307F136
:1039B00010003B1D93E8060000F084FA07F11800A0
:1039C00007F1340393E8060000F07CFAFC6801AAD2
:1039D00007F13C0393E8030082E80300FB690093CE
:1039E000BB6907F1100206CA204600F07FFA00BF4B
:1039F000F8682437BD46BDE8904002B0704790B5E6
:103A000087B000AFF860B9607A60F86800F0B0FA8B
:103A10000446F868FFF716FA0346E21ABB689A42B2
:103A200034BF01230023DBB2002B02D0786812F0F0
:103A3000F7FFF868FFF706FA0446F868FFF702FA9E
:103A400003463B6107F1080207F1100311461846CF
:103A5000FFF750FF03461B6823447B61F868FFF7BC
:103A6000F1F902467B69934206D3F86800F080FAC8
:103A700002467B69934204D9F86800F079FA03465C
:103A800000E07B6918461C37BD4690BD90B583B0F9
:103A900000AF786039607C68386800F06EF80346E3
:103AA0001946204600F082FA034618460C37BD46F8
:103AB00090BD90B58FB004AFF860B960394681E829
:103AC0000C003B68B96B3A6C184600F07EFA7862DD
:103AD000B96B07F1140300221846FDF760F907F1EE
:103AE0001C030022796A1846FDF7F6F8FC6801AA63
:103AF00007F11C0393E8030082E80300FB6B0093CB
:103B0000BB6B07F1140206CA204600F076FA00BF2C
:103B1000F8682C37BD4690BD82B090B58DB004AF2B
:103B2000F860381D80E806007B6307F110003B1D3C
:103B300093E8060000F0C6F907F1180007F1340316
:103B400093E8060000F0BEF9FC6801AA07F13C0307
:103B500093E8030082E80300FB690093BB6907F167
:103B6000100206CA204600F079FA00BFF868243730
:103B7000BD46BDE8904002B0704780B483B000AF4E
:103B800078607B681F335B0918460C37BD465DF8CB
:103B9000047B704780B485B000AF78607B68FB60C1
:103BA000FB6818461437BD465DF8047B704700007B
:103BB00080B485B000AF78607B68FB60FB681A0951
:103BC0000849A1FB021292084FF41C7101FB02F29A
:103BD0009B1AFB60FB6818461437BD465DF8047BF2
:103BE000704700BF1BA4411A80B483B000AF786057
:103BF00039603B681A687B681B689A4201D23B684F
:103C000000E07B6818460C37BD465DF8047B7047C2
:103C100080B400AF00231846BD465DF8047B7047B2
:103C200090B58DB000AF78601823FB614FF00002B3
:103C30002C4BC7E904232023FB600123BB604FF01A
:103C40000003BB624FF07E537B6201233B623B6A01
:103C5000002B21D0786800F043FA0446FFF7D8FF24
:103C60000346E31A07EE903AB8EE677AD7ED097A81
:103C700067EE277A97ED0A7A77EE277AC7ED0A7A08
:103C8000D7ED097A9FED187A67EE877AC7ED097A42
:103C90003B6A013B3B62DAE7D7ED0A6A97ED097AA6
:103CA000C6EE877AC7ED0B7AD7ED0B7AB7EE007ABE
:103CB000F4EEC77AF1EE10FAACBF01230023DBB2B9
:103CC000002B07D0DFED090AB7EE000AFCF7D3FEA0
:103CD00087ED0B0AFB6A07EE903AB0EE670A3437BD
:103CE000BD4690BD0000F0410000804F0000000084
:103CF000B0B584B000AFF860B9607A607868FFF75B
:103D000048FD0346D3E90045BB6819460820FCF787
:103D1000D1FE0346C3E9004500BF1037BD46B0BD24
:103D200080B483B000AF7860396000BF0C37BD4607
:103D30005DF8047B704780B483B000AF78607B6827
:103D400018460C37BD465DF8047B704780B582B0DD
:103D500000AF786039603B461846FFF7ECFF03463A
:103D60001A687B681A607B6818460837BD4680BDB4
:103D700080B586B000AFF860B9607A600123FB754A
:103D80007A68B968F86800F0E5F90346184618370C
:103D9000BD4680BD80B483B000AF78607B681846B4
:103DA0000C37BD465DF8047B704780B584B000AF2A
:103DB000F860B9607A607A68B968F86800F0DAF992
:103DC000034618461037BD4680BD80B483B000AFAF
:103DD000786039603B6818460C37BD465DF8047B57
:103DE000704780B487B000AFF860B9607A607B68D4
:103DF000D3E90023C7E90423FA68BB689A4208D0D4
:103E0000F968D7E90423C1E90023FB680833FB60A4
:103E1000F2E700BF1C37BD465DF8047B704780B5F4
:103E200084B000AFF860B9607A607A68B968F86801
:103E300000F0B0F9034618461037BD4680BD80B586
:103E400084B000AF78606FF07043FB60786800F07A
:103E5000BCF90346BB6007F1080207F10C031146E9
:103E60001846FFF7C1FE03461B6818461037BD46CB
:103E700080BD80B483B000AF78607B6818460C3793
:103E8000BD465DF8047B704780B584B000AFF86034
:103E9000B9607A60F86800F0A4F90246BB68934202
:103EA0008CBF01230023DBB2002B01D012F0B2FD46
:103EB000BB68DB00184612F09AFD0346184610371F
:103EC000BD4680BD80B485B000AFF8603B1D83E87F
:103ED0000600FB681A463B1D93E8030082E80300D6
:103EE000F8681437BD465DF8047B704782B090B522
:103EF00091B004AFF860381D80E806007B6407F1DC
:103F000010003B1D93E8060000F077F907F1180058
:103F100007F1440393E8060000F06FF907F1200071
:103F200007F14C0393E8060000F067F907F1280455
:103F300001AA07F1200393E8030082E80300FB696C
:103F40000093BB6907F1100206CA204600F069F928
:103F5000F86807F14C0107F128030CCB00F082F957
:103F600000BFF8683437BD46BDE8904002B07047E6
:103F700080B584B000AF78600B4BFB607B6818465F
:103F800000F091F90346184600F081F9B860BB686B
:103F9000B3F1806F02D2BB685B0100E0024B1846B0
:103FA0001037BD4680BD00BFE0FFFF7F80B582B007
:103FB00000AF7860396000223968786800F07EF9D7
:103FC000034618460837BD4680BD90B585B000AFA2
:103FD000F860B9607A60F86800F08EF90446B86855
:103FE00000F08AF903467A681946204600F08FF9F6
:103FF000034618461437BD4690BD82B090B58DB0CB
:1040000004AFF860381D80E806007B6307F11000FC
:104010003B1D93E8060000F09DF907F1180007F139
:10402000340393E8060000F095F9FC6801AA07F153
:104030003C0393E8030082E80300FB690093BB693B
:1040400007F1100206CA204600F098F900BFF86890
:104050002437BD46BDE8904002B0704782B090B5AD
:1040600091B004AFF860381D80E806007B6407F16A
:1040700010003B1D93E8060000F0BFF807F11800A0
:1040800007F1440393E8060000F0B7F807F12000B9
:1040900007F14C0393E8060000F0AFF807F128049D
:1040A00001AA07F1200393E8030082E80300FB69FB
:1040B0000093BB6907F1100206CA204600F0A0F980
:1040C000F86807F14C0107F128030CCB00F0CAF89F
:1040D00000BFF8683437BD46BDE8904002B0704775
:1040E00080B584B000AF78607B68D3F8C039B3F591
:1040F0001C7F02D3786800F0A5F97B68D3F8C0393B
:10410000591C7A68C2F8C0197A6852F82330FB60EB
:10411000FB68DB0AFA685340FB60FB68DA010B4B73
:104120001340FA685340FB60FB68DA03084B134006
:10413000FA685340FB60FB689B0CFA685340FB60D5
:10414000FB6818461037BD4680BD00BF80562C9DC9
:104150000000C6EF80B584B000AFF860B9607A6047
:104160007A68B968F86800F001FA03461846103713
:10417000BD4680BD80B584B000AFF860B9607A609C
:104180007A68B968F86800F009FA034618461037EB
:10419000BD4680BDF0B585B000AFF860B9607A600B
:1041A000FC68B868FCF77BFC054607F10C03184671
:1041B00000F016FA33467A682946204600F01BFACA
:1041C000034618461437BD46F0BD80B582B000AF37
:1041D0007860786800F02CFA034618460837BD4628
:1041E00080BD80B483B000AF78606FF07043184634
:1041F0000C37BD465DF8047B704780B485B000AFD6
:10420000F8603B1D83E80600FB681A463B1D93E8F7
:10421000030082E80300F8681437BD465DF8047BAC
:10422000704782B090B589B004AFF860381D80E85F
:1042300006007B62FC6801AA07F12C0393E80300E7
:1042400082E80300BB6A00937B6A3A1D06CA2046D7
:1042500000F0FAF900BFF8681437BD46BDE8904099
:1042600002B0704780B485B000AFF860B9603946DD
:1042700081E80C00FB681A463B4693E8030082E89D
:104280000300F8681437BD465DF8047B704780B5BD
:1042900082B000AF7860786800F0F7F903461846FE
:1042A0000837BD4680BD80B483B000AF78607B68BE
:1042B00018460C37BD465DF8047B704780B584B066
:1042C00000AFF860B9607A60F86800F0EAF9024679
:1042D000BB6893428CBF01230023DBB2002B01D0CB
:1042E00012F098FBBB689B00184612F080FB034657
:1042F00018461037BD4680BD80B483B000AF7860EB
:104300007B6818460C37BD465DF8047B7047B0B536
:1043100084B000AFF860B9607A60F86800F0CDF959
:104320000446B86800F0C9F905467B68184600F0F5
:10433000C4F903461A462946204600F0C9F9024648
:104340003B1D1146184600F0D3F9034618461037B6
:10435000BD46B0BD80B485B000AFF8603B1D83E8BA
:104360000600FB681A463B1D93E8030082E8030041
:10437000F8681437BD465DF8047B704782B090B58D
:1043800091B004AFF860381D80E806007B6407F147
:1043900010003B1D93E8060000F0B6F907F1180085
:1043A00007F1440393E8060000F0AEF907F120009E
:1043B00007F14C0393E80600FFF71FFF07F12804FD
:1043C00001AA07F1200393E8030082E80300FB69D8
:1043D0000093BB6907F1100206CA204600F0A8F955
:1043E000F86807F14C0107F128030CCBFFF73AFFFF
:1043F00000BFF8683437BD46BDE8904002B0704752
:1044000082B090B589B004AFF860381D80E806002E
:104410007B62FC6801AA07F12C0393E8030082E8A1
:104420000300BB6A00937B6A3A1D06CA204600F06F
:10443000A0F900BFF8681437BD46BDE8904002B04F
:104440007047000080B48BB000AF78604FF000433D
:10445000FB616FF00043BB6100237B627B6AE22B50
:1044600029D87B687A6A53F8223003F000427B6ACD
:10447000591C7B6853F8213023F0004313437B61C0
:104480007B6A03F28D127B6853F822207B695B08FC
:1044900053407A6902F00102002A01D0324A00E05A
:1044A000002282EA03017B687A6A43F822107B6A61
:1044B00001337B62D2E7E3233B623B6A40F26E2228
:1044C000934229D87B683A6A53F8223003F00042BD
:1044D0003B6A591C7B6853F8213023F00043134397
:1044E0003B613B6AA3F1E3027B6853F822203B69FE
:1044F0005B0853403A6902F00102002A01D01A4ACF
:1045000000E0002282EA03017B683A6A43F8221045
:104510003B6A01333B62D0E77B68D3F8BC3903F0D8
:1045200000427B681B6823F000431343FB607B68F9
:10453000D3F83026FB685B085340FA6802F00102AA
:10454000002A01D0084A00E000225A407B68C3F8E4
:10455000BC297B680022C3F8C02900BF2C37BD46A8
:104560005DF8047B704700BFDFB0089990B585B057
:1045700000AFF860B9607A60F86800F01BF9044693
:10458000B86800F017F903467A681946204600F02B
:1045900022F9034618461437BD4690BD80B586B053
:1045A00000AFF860B9607A60BA68FB68D31ADB10B4
:1045B0007B617B69002B0AD07B69DB005B427A68F8
:1045C000D0187B69DB001A46F96812F0FDFF7B69A1
:1045D000DB005B427A68134418461837BD4680BD3D
:1045E00080B483B000AF786000BF18460C37BD467A
:1045F0005DF8047B704780B584B000AFF860B960A7
:104600007A603B70BB68002B01D1FB680CE0BB6893
:10461000DB00FA6813447A681946F868FFF738F93E
:10462000BB68DB00FA68134418461037BD4680BDEE
:1046300080B582B000AF78607868FFF7D2FD03469E
:1046400018460837BD4680BD82B090B589B004AF2A
:10465000F860381D80E806007B62FC6801AA07F15B
:104660002C0393E8030082E80300BB6A00937B6A93
:104670003A1D06CA204600F0D1F800BFF86814378A
:10468000BD46BDE8904002B0704780B582B000AF33
:104690007860786800F005F8034618460837BD468C
:1046A00080BD80B483B000AF78606FF0604318467F
:1046B0000C37BD465DF8047B704780B483B000AF13
:1046C00078607B6818460C37BD465DF8047B704700
:1046D00080B584B000AFF860B9607A607A68B96874
:1046E000F86800F0E2F8034618461037BD4680BD72
:1046F00080B483B000AF786039603B6818460C37EF
:10470000BD465DF8047B704780B485B000AFF860AB
:104710003B1D83E80600FB681A463B1D93E8030037
:1047200082E80300F8681437BD465DF8047B7047E3
:1047300082B090B589B004AFF860381D80E80600FB
:104740007B62FC6801AA07F12C0393E8030082E86E
:104750000300BB6A00937B6A3A1D06CA204600F03C
:10476000B4F800BFF8681437BD46BDE8904002B009
:10477000704782B090B589B004AFF860381D80E80A
:1047800006007B62FC6801AA07F12C0393E8030092
:1047900082E80300BB6A00937B6A3A1D06CA204682
:1047A00000F0B4F800BFF8681437BD46BDE890408B
:1047B00002B0704780B582B000AF78603B1D1846EC
:1047C00000F0EBF803461846FFF734F803461846A6
:1047D0000837BD4680BDB0B584B000AFF860B960A1
:1047E0007A60F868FFF7D6FA0446B868FFF7D2FA9D
:1047F00005467B681846FFF7CDFA03461A46294658
:10480000204600F0D6F802463B1D11461846FFF739
:10481000DCFA034618461037BD46B0BD82B080B5FD
:104820008AB000AFF860381D80E806007B633A1D4F
:1048300007F1340311461846FCF727FA78627B6AC1
:10484000002B23DD07F13C031846FCF777FA0246FC
:1048500007F1140311461846FCF74FFA07F1340329
:104860001846FCF76BFA024607F11C03114618467E
:10487000FCF743FA07F11C0207F11403114618462E
:10488000FCF770F97B6A013B7B62D8E7FB681A464C
:1048900007F13C0393E8030082E80300F868283737
:1048A000BD46BDE8804002B0704780B584B000AF1F
:1048B000F860B9607A607A68B968F86800F089F8D9
:1048C000034618461037BD4680BD82B090B589B00A
:1048D00004AFF860381D80E806007B62FC6801AA1E
:1048E00007F12C0393E8030082E80300BB6A0093FE
:1048F0007B6A3A1D06CA204600F088F800BFF868B7
:104900001437BD46BDE8904002B0704782B080B514
:104910008AB000AFF860381D80E806007B633A1D5E
:1049200007F1340311461846FCF7AFF978627B6A49
:10493000002B23DD07F1140307F13C021146184652
:10494000FCF7DBF907F11C033A1D11461846FCF78A
:10495000D4F907F11C0207F1140311461846FCF7BD
:1049600001F93B1D1846FCF7DCF907F13C0318463A
:10497000FCF7D7F97B6A013B7B62D8E7FB681A46F4
:1049800007F13C0393E8030082E80300F868283746
:10499000BD46BDE8804002B0704780B483B000AF30
:1049A00078607B681B6818460C37BD465DF8047B51
:1049B000704780B584B000AFF860B9607A607A68FB
:1049C000B968F86800F066F8034618461037BD4627
:1049D00080BD80B586B000AFF860B9607A60BA6813
:1049E000FB68D31A9B107B617B69002B06D07B6927
:1049F0009B001A46F968786812F0E6FD7B699B0017
:104A00007A68134418461837BD4680BD82B080B519
:104A100088B000AFF860381D80E80600FB623A1DE0
:104A200007F12C0311461846FCF72FF9F861FB69D2
:104A3000002B20DD07F1140307F13402114618465C
:104A4000FCF75BF93B1D1846FCF7DDF903461A46F7
:104A500007F1140311461846FCF760F83B1D184691
:104A6000FCF7EAF907F134031846FCF75AF9FB6939
:104A7000013BFB61DBE7FB681A4607F1340393E86F
:104A8000030082E80300F8682037BD46BDE8804097
:104A900002B0704780B584B000AFF860B9607A604A
:104AA0007A68B968F86800F005F8034618461037C8
:104AB000BD4680BD80B586B000AFF860B9607A6051
:104AC000BA68FB68D31ADB107B617B69002B06D0C8
:104AD0007B69DB001A46F968786812F075FD7B691E
:104AE000DB007A68134418461837BD4680BD0000C5
:104AF00090B583B000AF7860064C074B9C4206D05F
:104B0000064B23441C46204600F0DCF8F5E70C3742
:104B1000BD4690BD60E02EC0000000C0F423FAFF47
:104B200080B582B000AF78607B683C331846FDF7F3
:104B3000D4FD7B6830331846FDF794FD7B68243341
:104B40001846FDF78FFD7B6818331846FDF78AFD80
:104B50007B6818460837BD4680BD000090B583B01D
:104B600000AF7860054C064B9C4204D0583C204670
:104B7000FFF7D6FFF7E70C37BD4690BDF00A0024DB
:104B800088080024B0B582B000AF786039607B68D7
:104B9000012B67D13B684FF6FF72934262D1334BD2
:104BA00007241D46002C07DB2846FDF73AFE304B54
:104BB0002B441D46013CF5E72E4A2F49002011F0F9
:104BC0000FFF2E48FCF7B5FA2A4A2D492B4811F061
:104BD00007FF2C48FCF7BEFB264A2B49294811F059
:104BE000FFFE2A48FCF7F6FA224A2949274811F025
:104BF000F7FE2848FCF77EFB1E4A2749254811F09E
:104C0000EFFE2648FDF728FA2548FCF766FA194A10
:104C10002449234811F0E4FE234B06241D46002CB2
:104C200005DB2846FCF7F8FB5835013CF7E7114A4D
:104C30001E49002011F0D4FE1D48FCF728FA1D483B
:104C4000FCF725FA1C48FCF7C1F90A4A1B491A4827
:104C500011F0C6FE1A48FCF7B9F9064A1749184878
:104C600011F0BEFE00BF0837BD46B0BD000000C059
:104C70000CDC050000000024F14A00082406002492
:104C80007F110008600600246B13000870060024E2
:104C900049120008A006002425130008C0070024BC
:104CA00080080024F1100008880800245D4B0008EB
:104CB000F00A0024040B00243C0B0024E90F000838
:104CC000400B002480B483B000AF78607B68184646
:104CD0000C37BD465DF8047B704780B500AF4FF6DA
:104CE000FF710120FFF74EFF80BD80B582B000AF9D
:104CF00087ED010AC7ED000AD7ED000A97ED010A1A
:104D000012F0D6F8F0EE407AB0EE670A0837BD46EA
:104D100080BD80B58AB000AF87ED070AC7ED060AEF
:104D200087ED051AC7ED041A034687ED022AC7ED81
:104D3000012AFB73FB7B002B14D097ED077AD7ED8C
:104D4000027A77EE676A97ED017AD7ED027A37EE4D
:104D5000677AC6EE877AB7EE007A77EE677AC7EDA4
:104D6000097A0FE097ED077AD7ED027A77EE676A56
:104D700097ED017AD7ED027A37EE677AC6EE877A39
:104D8000C7ED097AD7ED047AB7EE007AF4EE477AE8
:104D9000F1EE10FA07D0D7ED040A97ED090AFFF7F4
:104DA000A4FF87ED090A97ED057AD7ED067A37EE6D
:104DB000677AD7ED097A67EE277A97ED067A77EE6C
:104DC000277AC7ED087A3B6A07EE903AB0EE670A99
:104DD0002837BD4680BD0000704700BF143001F089
:104DE000A9B900BF143001F0A1B900BF38B500F176
:104DF000140504462DED028B284601F089F928465A
:104E000001F094F92846B0EE408A01F07DF9D0ED2A
:104E1000007AF8EE677A88EE277ABDEC028B84ED93
:104E20000E7A38BDF0B5032399B0002701251293FF
:104E300006462C4B09A81595CDE90E7340F2045394
:104E4000ADF84030284BCDE91357099301F0F8FE37
:104E500009A801F0D1FF002836D1244B04AF044645
:104E60000090CDF842301023394604958DF820305B
:104E70001F4BCDE91650CDE906506846059302F068
:104E800049F90823009A01A909A8ADF804508DF842
:104E9000064009940295039300F0E4F800230EA95C
:104EA00038463024049302F0FFFE03224FF07E5375
:104EB00009A906F114000B930C93CDE90942049A59
:104EC00001F0EAF819B0F0BD40F60132074B169731
:104ED00004AFADF824200998CDF84230179500F0C2
:104EE00081F8DBE704020404030300010406040361
:104EF0000704010B2DE9F04304462DED028B83B02E
:104F0000002948D0012140F2011200230091ADF8A0
:104F100004208DF80630304A0126304B271D3049D9
:104F200004F12908626040F20272A36040F6066351
:104F3000E16004F125092682A4F8252084F8276081
:104F4000A4F8293084F82B6003F000FC694605467C
:104F500048B304F130008DF8066003F053FB072DD1
:104F600034D104F114052046FFF75CFF284601F018
:104F7000DDF82846B0EE408A01F0C6F8D0ED007AA0
:104F8000F8EE677A88EE277A84ED0E7A03B0BDECEE
:104F9000028BBDE8F08340F2011300918DF80610FA
:104FA000ADF80430B7E704F1300003F02BFB3946CD
:104FB000204602F0F9FA484601F042FE404601F070
:104FC0003FFE04F1120000F077F9CAE739462046A7
:104FD00002F0EAFAC5E700BF05080509050705065E
:104FE000050A060610B584B003460124ADF8040096
:104FF00003A8ADF80C30ADF80E4001F021FE2146BB
:1050000003A801F007FF204603F030FA002103A8AF
:1050100001F000FF204603F029FA214603A801F021
:10502000F9FE04B010BD00BF10B5C2F3002384B078
:105030000C46017C8DF80D2043EA4402FA24022339
:105040008DF80C2003AA009402F0FAF818B101249C
:10505000204604B010BD04460A2003F007FA20469B
:1050600004B010BD034670B543F8042B044684B069
:1050700007C983E80700A37983B91A210B461E22CA
:10508000FA2523742046ADF80C20022303AA0095CC
:1050900002F0D6F828B1012004B070BD1B210B46E8
:1050A000EDE70A2003F0E2F94FF4B852009502232D
:1050B000ADF80C20204603AA217C02F0C1F800289C
:1050C000E9D10A2003F0D2F941F2027200950223DD
:1050D000ADF80C20204603AA217C02F0B1F800288C
:1050E000D9D10A2003F0C2F9042200950223ADF8B9
:1050F0000C20204603AA217C02F0A2F80028CAD185
:105100000A2003F0B3F9062200950223ADF80C2023
:10511000204603AA217C02F093F80028BBD10A2084
:1051200003F0A4F941F2082200950223ADF80C2007
:10513000204603AA217C02F083F80028ABD10A2084
:10514000064603F093F90095022303AA217C20462A
:10515000ADF80C6002F074F800289CD1304603F0E2
:1051600085F9009522790C232046002A8DF80C3011
:1051700003AA4FF0020314BF622142218DF80D10E3
:10518000217C02F05DF8002885D1304603F06EF9ED
:105190002279D4E902310B43DBB20AB943F0400370
:1051A00062790AB143F020030E22FA258DF80D3002
:1051B0002046009502238DF80C2003AA217C02F0E2
:1051C0003FF800287FF467AF0A2003F04FF9102260
:1051D00000950223ADF80C20204603AA217C02F0A2
:1051E0002FF800287FF457AF0A2003F03FF912216F
:1051F00000950223ADF80C1003AA217C204602F092
:105200001FF800287FF447AF0A2003F02FF901228E
:1052100009212046FFF708FF003818BF01203BE7AF
:10522000F0B5102387B0234C01220025012600276A
:1052300002A920460195CDE902234FF48052CDE921
:1052400004670AF013FD642004F0BEF802A94FF4CD
:1052500080522046CDE9046702261027CDE9026777
:105260000AF004FD0322102302A92046CDE90223FF
:1052700000230422CDE904234FF480520AF0F6FC07
:1052800040F23223042202A9019310232046CDE9E3
:105290000223019A012305924FF4805204930AF0ED
:1052A000E5FC40F6060120460AF000FD284607B05E
:1052B000F0BD00BF4C0B00241C4B00221C494FF0DA
:1052C000400C30B5054689B00220596007219A602C
:1052D0001A620124DA620A224FF4006EDC60069240
:1052E0002022CDE9000104200821CDE9020103209C
:1052F0001021CDE9040108206946C3E904024FF4F6
:10530000C072181DC3E906C24FF48052C3E909E216
:105310000AF082FC38B92846FFF782FF003818BF30
:10532000012009B030BD204609B030BD480B002433
:1053300040410052614A0021D0B513688EB00A91F5
:10534000002B40F0B9805E4B01214FF683700C2496
:1053500011600221D3F8D4200026032742F48052A2
:10536000C3F8D420D3F8D42002F480520092009ADB
:10537000D3F8E02042F01002C3F8E020D3F8E02098
:1053800002F010020192019AD3F8E02042F04002AC
:10539000C3F8E020D3F8E02002F040020292029A23
:1053A000D3F8E02042F00802C3F8E020D3F8E02070
:1053B00002F008020392039AD3F8E02042F48072CC
:1053C000C3F8E020D3F8E02002F480720492049A3B
:1053D000D3F8E02042F08002C3F8E020D3F8E020C8
:1053E00002F080020592059AD3F8E02042F02002F4
:1053F000C3F8E020D3F8E02002F020020692069ADB
:10540000D3F8E02042F00402C3F8E020D3F8E03003
:105410000C9403F0040307930323079A0B93CDE93D
:10542000080108A9274805F055FE48F23712022363
:1054300008A925480C94CDE90823CDE90A6705F0B1
:1054400049FE4CF20372022308A920480C94CDE9CE
:105450000823CDE90A6705F03DFE40F2FF62022312
:1054600008A91B480C94CDE90823CDE90A6705F08B
:1054700031FE4FF60C72022308A916480C94CDE9B0
:105480000823CDE90A6705F025FE4FF63F02022307
:1054900008A911480C94CDE90823CDE90A6705F065
:1054A00019FE2022022308A90A480C94CDE90A67B4
:1054B000CDE9082305F00EFE0EB0D0BD440B00244C
:1054C000004402580010025800180258000C0258FC
:1054D00000200258001C0258001402582DE9F04F19
:1054E000DFF8108406460D46144608F118002DED2D
:1054F000028B89B000AF02F0CFFCD8F8183073B33C
:10550000D8F81C30D8F80490002B43690BBF4FF03B
:10551000080A4FF0100A4FF0020B4FF0040BB9F1DC
:10552000000F2AD0A200EA46012B02F1070222F066
:105530000702ADEB020D6846ADEB020D694600F0C7
:105540003F81022B00F0D680002B6FD02246C84747
:10555000D5462437BD46BDEC028BBDE8F08FD8F8A8
:105560001C30002BF5D0D8F804904FF0080A4FF00B
:10557000020B4369B9F1000FD4D1FB61D8F80030B8
:10558000BB61002BE5D0D54802F0F8FC6B46BBF1BF
:10559000020F786108EE103AFB6900F083816A46D9
:1055A0005146A2EBC40295466200EA46B2FBFBF20A
:1055B000AAEBC40085460AEB8200EE46F861ADEB2B
:1055C000010DF8690EEB820CC7F810C0EC46ADEB8C
:1055D000010D00EB8201CCF80400CCF8081001EBBF
:1055E00082013869E946CCF80C1000EB8201CCF856
:1055F00000A001EB8202C9E900E0C9E90212012B17
:1056000000F06483022B00F06C82002B00F080819C
:10561000620849466046BB69984718EE103A24373D
:105620009D46BD46BDEC028BBDE8F08F002C8DD0B1
:105630001A46D8ED0C6A9FEDB27A8446331D36F9CE
:1056400022E00CF1080C07EE90EA33F922E0023276
:10565000F8EEE77A944267EE877A67EEA67A4CED29
:10566000027A07EE90EAF8EEE77A67EE877A67EE5D
:10567000A67A4CED017AE2D8F9612246C847984EE5
:10568000D8ED0D6A0020F9692B1D9FED9E7A9FEDE4
:105690009E6ADFED9E5A22E0F4EEC67AF1EE10FA31
:1056A000C0F2C88447F6FE72D1ED017A45F8202099
:1056B00066EEA77AF4EEC77AF1EE10FA40F2F080C7
:1056C000F4EEC67AF1EE10FAC0F2D58447F6FE7217
:1056D00043F820200230083184427FF639AFD1ED03
:1056E000007A66EEA77AF4EEC77AF1EE10FAD3D814
:1056F0003246D9E7002C3FF429AFD8ED0C6A844636
:105700009FED787A0022331D8E4656F822100CF158
:10571000080C07EE901A53F822100232F8EEE77ADE
:10572000944267EE877A67EEA67A4CED027A07EE2E
:10573000901AF8EEE77A67EE877A67EEA67A4CED74
:10574000017AE2D871462246C7F81CE0C847664E87
:10575000D8ED0D6A0020F9692B1D9FED6A7A9FED47
:105760006A6ADFF894C120E0F4EEC67AF1EE10FA2E
:10577000C0F279843246D1ED017A45F8202066EEF8
:10578000A77AF4EEC77AF1EE10FA40F28780F4EED1
:10579000C67AF1EE10FAC0F25E84324643F8202059
:1057A0000230083184427FF6D3AED1ED007A66EE46
:1057B000A77AF4EEC77AF1EE10FAD5D86246DAE7A6
:1057C000002C3FF4C3AED8ED0C6A86469FED477AB5
:1057D0004FF0000C331D56F82C200EF1080E82F409
:1057E0000002A2F5000207EE902A53F82C200CF1DB
:1057F000020CF8EEE77A82F400026445A2F500029A
:1058000067EE877A67EEA67A4EED027A07EE902A67
:10581000F8EEE77A67EE877A67EEA67A4EED017AC0
:10582000D9D8F9612246C847314ED8ED0D6A00201B
:10583000F9692B1D9FED337A9FED336ADFF8BCC009
:105840001FE0F4EEC67AF1EE10FAC0F2FC833246A5
:10585000D1ED017A45F8202066EEA77AF4EEC77AFA
:10586000F1EE10FA18D9F4EEC67AF1EE10FAC0F2A1
:10587000DA83324643F820200230083184427FF632
:1058800067AED1ED007A66EEA77AF4EEC77AF1EE54
:1058900010FAD6D86246DBE76246EBE762467DE760
:1058A000324615E7A100D6466208073121F007010C
:1058B000ADEB010DEA46ADEB010D6946ADEB0E0D0A
:1058C0000AEB8200EC46ADEB0E0D01EB8202F861B3
:1058D000E946CCE900A0C9E9001290E69C0B00243F
:1058E0000280FFFF000000300082FF7F00000034D4
:1058F00082FF7F00800B0024007E00807E0080FFFE
:105900000000003804FF7FBF04FF7F3F00FEFF461A
:10591000002C00F0C982BBF1020FD8F8242000F05F
:10592000FA827969C7F8049002EB810E5FED0C5A98
:105930008A00DCF808100EF104007A611A46DCF8DF
:105940000C303B61331DD7F810903D61FD69C7E90C
:1059500002CB8C46834636F92210D8ED0C7A06EE3F
:10596000101A33F9221006EE901A3EF92210B8EE02
:10597000C66A07EE101AF8EEE66A3BF92210B8EE96
:10598000C77A26EE256A66EEA56A27EE257A26EE08
:10599000276A66EEA76A27EE277A07EE901A510863
:1059A0000232F8EEE77A0AEB8100944280ED006A59
:1059B00005EB810067EEA57AC0ED006A0CEB810073
:1059C00009EB810180ED007A98ED0C7A67EE877A19
:1059D000C1ED007ABFD8D7F804903D69D7E902CB72
:1059E00060466208BB6949469847D8F82C307A6906
:1059F000D8ED0D6A1A441FED3D7A1FED3D6A2B1D4F
:105A0000904602F1040A5FED3F5A0022A84ED9E900
:105A100000EC51E0F4EEC67AF1EE10FAC0F2C78263
:105A200047F6FE7045F822000CEB0100D0ED007A3D
:105A300066EEA77AF4EEC77AF1EE10FA4BD9F4EEDF
:105A4000C67AF1EE10FAC0F2BA8247F6FE70BBF1E8
:105A5000020F43F822002BD0D9F808000844D0EDFB
:105A6000007A66EEA77AF4EEC77AF1EE10FA36D92C
:105A7000F4EEC67AF1EE10FAC0F2CD8247F6FE706F
:105A800048F82200D9F80C000144D1ED007A66EE06
:105A9000A77AF4EEC77AF1EE10FA1ED9F4EEC67AC0
:105AA000F1EE10FAC0F2AF8247F6FE714AF822100A
:105AB000023294427FF6B1AD51080EEB81008900AD
:105AC000D0ED007A66EEA77AF4EEC77AF1EE10FA1E
:105AD000A0D83046A6E73046B9E73146E6E730467B
